:100000000C9462000C948A000C948A000C948A0070
:100010000C948A000C948A000C948A000C94F601CB
:100020000C948A000C948A000C948A000C948A0028
:100030000C948A000C948A000C948A000C948A0018
:100040000C9440040C948A000C94C4010C949E01FE
:100050000C948A000C948A000C948A000C948A00F8
:100060000C948A000C948A000000000023002600F3
:10007000290000000000240027002A0000000000E2
:10008000250028002B0004040404040404040202D4
:100090000202020203030303030301020408102007
:1000A0004080010204081020010204081020000012
:1000B0000008000201000003040700000000000027
:1000C0000000600C11241FBECFEFD8E0DEBFCDBF13
:1000D00011E0A0E0B1E0E2E7FEE102C005900D9280
:1000E000A231B107D9F722E0A2E1B1E001C01D922F
:1000F000A43AB207E1F710E0C2E6D0E004C02197CD
:10010000FE010E94E40CC136D107C9F70E948A049F
:100110000C94370F0C940000CF92DF92EF92FF9275
:100120000F931F93CF93DF936C017A018B01C0E093
:10013000D0E0CE15DF0581F0D8016D918D01D6019B
:10014000ED91FC910190F081E02DC6010995892B7C
:1001500011F02196EECF7E01C701DF91CF911F9163
:100160000F91FF90EF90DF90CF900895089580E079
:1001700090E00895FC01538D448D252F30E0842FAD
:1001800090E0821B930B541710F0CF9608950197BF
:100190000895FC01918D828D981761F0828DDF01A9
:1001A000A80FB11D5D968C91928D9F5F9F73928F6A
:1001B00090E008958FEF9FEF0895FC01918D828D5F
:1001C000981731F0828DE80FF11D858D90E008952C
:1001D0008FEF9FEF0895FC01918D228D892F90E084
:1001E000805C9F4F821B91098F73992708958FE23E
:1001F00091E00E94EB0021E0892B09F420E0822F9E
:100200000895FC01848DDF01A80FB11DA35ABF4FD3
:100210002C91848D90E001968F739927848FA68905
:10022000B7892C93A089B1898C91837080648C9359
:10023000938D848D981306C00288F389E02D808108
:100240008F7D80830895EF92FF920F931F93CF933A
:10025000DF93EC0181E0888F9B8D8C8D981305C016
:10026000E889F989808185FD26C0F62E0B8D10E086
:100270000F5F1F4F0F731127E02E8C8DE8120CC0FB
:100280000FB607FCFACFE889F989808185FFF5CFA1
:10029000CE010E940101F1CF8B8DFE01E80FF11D0F
:1002A000E35AFF4FF0829FB7F8940B8FEA89FB89DE
:1002B000808180620AC09FB7F894EE89FF896083CD
:1002C000E889F98980818370806480839FBF81E0A1
:1002D00090E0DF91CF911F910F91FF90EF900895E3
:1002E000CF93DF93EC01888D8823C9F0EA89FB89DD
:1002F000808185FD05C0A889B9898C9186FD0FC0D4
:100300000FB607FCF5CF808185FFF2CFA889B989A8
:100310008C9185FFEDCFCE010E940101E7CFDF91E7
:10032000CF91089580E090E0892B29F00E94F7009A
:1003300081110C94000008950E94320F1F920F92B9
:100340000FB60F9211242F933F934F935F936F93A8
:100350007F938F939F93AF93BF93EF93FF938FE21E
:1003600091E00E940101FF91EF91BF91AF919F91A8
:100370008F917F916F915F914F913F912F910F904E
:100380000FBE0F901F9018951F920F920FB60F92ED
:1003900011242F938F939F93EF93FF93E0913F014D
:1003A000F09140018081E0914501F091460182FD8C
:1003B00012C09081809148018F5F8F732091490115
:1003C000821751F0E0914801F0E0E15DFE4F958F1A
:1003D0008093480101C08081FF91EF919F918F919F
:1003E0002F910F900FBE0F901F9018951F920F9294
:1003F0000FB60F9211242F933F934F935F936F93F8
:100400007F938F939F93AF93BF93CF93DF93EF939C
:10041000FF932091CD0130E0F901E255FF4F849127
:10042000F901E656FF4FD491F901EA57FF4FC49105
:10043000CC2379F081110E94AC03EC2FF0E0EE0F99
:10044000FF1FE859FF4FA591B491EC91ED2381E096
:1004500009F480E02091D1013091D2012F5F3F4F0C
:100460003093D2012093D1019091D001953618F0AC
:1004700096E09093CC019091CC019430C9F128F48E
:10048000923069F09330D1F05EC0953009F451C0DC
:10049000963009F058C091E090939D0251C08111AF
:1004A00052C02091D1013091D2012436310508F497
:1004B00042C010929D021092D0011CC0813009F000
:1004C00042C0E091D00191E09E0F9093D001F0E006
:1004D0002091D1013091D201EE0FFF1FE453FE4F66
:1004E000308727831092D2011092D10194E029C065
:1004F000811117C0E091D00191E09E0F9093D0013F
:10050000F0E02091D1013091D201EE0FFF1FE453B2
:10051000FE4F308727831092D2011092D10193E0D1
:1005200010C02091D1013091D2012536310558F00B
:1005300007C0811108C01092D2011092D10103C0EE
:1005400095E09093CC019091CF019923B9F081115E
:100550000AC08091CE01882321F08091CE0161E014
:1005600009C02D9A0BC08091CE01882331F0809173
:10057000CE0160E00E94D50301C02D98FF91EF915C
:10058000DF91CF91BF91AF919F918F917F916F91AB
:100590005F914F913F912F910F900FBE0F901F9041
:1005A0001895CF92DF92EF92FF92CF93DF93EC01F9
:1005B000072E000C880B990B0E94150E6B017C0115
:1005C00020E030E040E45FE30E94C50E20E030E030
:1005D00048E452E40E946B0D0E94DD0DC617D70758
:1005E000D4F020E030E040EA5FE3C701B6010E94AA
:1005F000C50E20E030E048E452E40E946B0D20E09C
:1006000030E040E85FE30E94FA0C0E94DD0D21E03B
:100610006C177D070CF420E0822F90E0DF91CF91E2
:10062000FF90EF90DF90CF90089581E080931201CA
:1006300060E084E00E94D5032FB7F89480911B01FD
:1006400090911C01A0911D01B0911E012FBF8851F6
:100650009C4FAF4FBF4F8093130190931401A09311
:100660001501B093160108958F929F92AF92BF9299
:10067000CF92DF92EF92FF920F931F93CF93DF936E
:10068000FC0120813181E0912B01F0912C012E178A
:100690003F070CF04FC0F901EE0FFF1FA091290199
:1006A000B0912A01EA0FFB1FA080B180217033278F
:1006B0006901F1E0CF26232B19F42CE93FEF02C0AA
:1006C00024E630E07A018B01EC014901840E951E8D
:1006D000B401C5010E94D102892B99F48E0C9F1C94
:1006E000B401C5010E94D102892B71F4B701680DD4
:1006F000791DC5010E94D102892BF9F023E030E079
:1007000005C021E030E002C022E030E0F801808145
:1007100091810196821793071CF49183808308C00E
:10072000F8011182108288819981019699838883CA
:10073000C60105C081E090E002C08FEF9FEFDF911E
:10074000CF911F910F91FF90EF90DF90CF90BF90CE
:10075000AF909F908F900895833081F028F481307E
:1007600099F08230A1F008958730A9F08830B9F06F
:100770008430D1F4809180008F7D03C0809180000F
:100780008F7780938000089584B58F7702C084B5F9
:100790008F7D84BD08958091B0008F7703C08091D4
:1007A000B0008F7D8093B00008951F93CF93DF93A7
:1007B000282F30E0F901E255FF4F8491F901E65608
:1007C000FF4FD491F901EA57FF4FC491CC23C1F0F8
:1007D000162F81110E94AC03EC2FF0E0EE0FFF1FEB
:1007E000E458FF4FA591B4919FB7F894111104C03C
:1007F0008C91D095D82302C0EC91DE2BDC939FBF67
:10080000DF91CF911F910895CF93DF9390E0FC018A
:10081000E656FF4F2491FC01EA57FF4F849188234D
:1008200061F190E0880F991FFC01EE58FF4FC591D0
:10083000D491FC01E458FF4FA591B491611109C016
:100840009FB7F8948881209582238883EC912E238A
:100850000BC0623061F49FB7F8948881322F3095D5
:1008600083238883EC912E2B2C939FBF06C08FB7D8
:10087000F894E8812E2B28838FBFDF91CF910895C4
:100880001F920F920FB60F9211242F933F938F93C5
:100890009F93AF93BF9380911B0190911C01A091F6
:1008A0001D01B0911E013091A30223E0230F2D37CB
:1008B00020F40196A11DB11D05C026E8230F029664
:1008C000A11DB11D2093A30280931B0190931C01D5
:1008D000A0931D01B0931E0180919F029091A002F0
:1008E000A091A102B091A2020196A11DB11D809319
:1008F0009F029093A002A093A102B093A202BF9185
:10090000AF919F918F913F912F910F900FBE0F90BC
:100910001F901895CF93DF93CDB7DEB728970FB60A
:10092000F894DEBF0FBECDBF789484B5826084BDDD
:1009300084B5816084BD85B5826085BD85B58160E3
:1009400085BD80916E00816080936E001092810061
:10095000809181008260809381008091810081601C
:1009600080938100809180008160809380008091DD
:10097000B10084608093B1008091B0008160809369
:10098000B00080917A00846080937A0080917A0030
:10099000826080937A0080917A00816080937A00EF
:1009A00080917A00806880937A001092C10061E0A3
:1009B00083E00E94040461E083E00E94D50361E0CB
:1009C00084E00E94040461E084E00E94D503109258
:1009D0001201E0913F01F091400182E08083E091BB
:1009E0003B01F0913C011082E0913D01F0913E010C
:1009F0009FEC908310924701E0914301F0914401F4
:100A000096E09083E0914101F091420190819061E4
:100A10009083E0914101F091420190819860908330
:100A2000E0914101F0914201908190689083E091C2
:100A30004101F091420190819F7D9083F8948093D1
:100A4000B0008093B10094E69093B3001092B2008E
:100A50008093700078948093CC011092D0018091A3
:100A6000CD0160E00E94040481E08093CF0161E049
:100A70008DE00E94040410E2212E312C2FB7F8944F
:100A800080911B0190911C01A0911D01B0911E014C
:100A90002FBF409113015091140160911501709185
:100AA0001601481759076A077B0720F48091120145
:100AB000811117C123ED31E030932A0120932901E0
:100AC0008091D00190E090932C0180932B01809134
:100AD0009D0290E090932E0180932D018091CC0196
:100AE000853009F0FBC08091D5019091D6018858DE
:100AF00091098D35910588F48091D001843041F4BD
:100B00008091D7019091D8018097479708F409C147
:100B10008091D001843408F0EBC08091D0018A31FB
:100B200008F45DC18091D3019091D401843F91403C
:100B300058F410922801109227018BE090E09093D6
:100B4000200180931F0157C08091D5019091D6015B
:100B500085974B9708F043C1E9EDF1E082E090E022
:100B6000C12CD12C7601AC014F5F5F4F2091D00199
:100B700030E0421753075CF4DF0112972D913C914E
:100B8000275031092730310508F40DC1CA010197FA
:100B90009595879590932801809327010C972CF4C5
:100BA00010922801109227011AC1C0922301D092FD
:100BB0002401E0922501F092260184E090E00AC031
:100BC000C0922301D0922401E0922501F0922601E7
:100BD0008BE090E09093200180931F01809123018E
:100BE00090912401A0912501B09126018F3F9F4F44
:100BF000AF4FBF4F81F48091170190911801A091E0
:100C00001901B0911A018093230190932401A093BC
:100C10002501B09326018091230190912401A09198
:100C20002501B09126018D3BF2E49F07FFEFAF074E
:100C3000B105E9F1D8F4873E38E193073FEFA30708
:100C4000B105A9F130F48F3E9041AF4FB10579F174
:100C500030C08F3C20E392072FEFA207B10539F196
:100C6000873C9843AF4FB10511F123C0853AEAE5BF
:100C70009E07EFEFAE07B105D1F068F4853B2AE49B
:100C800092072FEFA207B10591F08D3A9245AF4F31
:100C9000B10569F00EC08739E8E69E07EFEFAE07B1
:100CA000B10529F085389A47AF4FB10511F40E947C
:100CB00015038091230190912401A0912501B09109
:100CC00026018093170190931801A0931901B09306
:100CD0001A0182E08093CC011092D0010E9492010F
:100CE000CDCE1092120161E084E00E94D503E2CEE5
:100CF0008091D7019091D801825491098E9708F084
:100D00000CCF80E090E040E050E0BA01FC01E752F7
:100D1000FE4F20813181295031092930310580F081
:100D2000FCCE8091D9019091DA010997099708F0DA
:100D3000EFCE109228011092270183E090E0FFCEC1
:100D4000FC01E552FE4F20813181275131092231CA
:100D50003105E0F4440F551F661F771F416004966C
:100D60008038910599F6309228012092270140930E
:100D70002301509324016093250170932601A3E081
:100D8000B0E0B0932001A0931F0128CF20813181D2
:100D9000265031092730310508F0BFCE440F551FCA
:100DA000661F771FDCCF20813181235131092F301D
:100DB000310548F4CC0CDD1CEE1CFF1C6894C0F817
:100DC00002963496D0CE208131812A5031092930C3
:100DD000310528F4CC0CDD1CEE1CFF1CF1CF8091FA
:100DE000D0018A3108F45AC08091D3019091D40186
:100DF0008032934008F49DCE8091D5019091D60128
:100E0000C697869708F04AC08091D7019091D80183
:100E1000C697869708F042C0EBEDF1E023E030E0A2
:100E2000C12CD12C7601C90101964091D00150E02E
:100E30008417950754F4DF0112974D915C914C5043
:100E400051094B30510588F001C0C90101979595B2
:100E5000879590932801809327010C970CF0B0CED2
:100E6000109228011092270119C0808191818597E5
:100E70004B9750F4CC0CDD1CEE1CFF1C6894C0F8A2
:100E80002E5F3F4F3496CFCF808191810C970A9788
:100E900028F4CC0CDD1CEE1CFF1CF2CF8091D0019D
:100EA000823208F459C08091D5019091D6010697FD
:100EB000079708F051C0E9EDF1E022E030E0C12CE5
:100EC000D12C7601C90101964091D00150E08417E0
:100ED0009507CCF4DF0112974D915C9111974E511B
:100EE00051094731510548F5CC0CDD1CEE1CFF1CA7
:100EF0006894C0F84081518134964350510945307F
:100F0000510538F101C0C9010197959587959093D6
:100F100028018093270140972CF410922801109209
:100F200027011AC0C0922301D0922401E09225012A
:100F3000F09226018CE090E04DCE4D915C914C50AA
:100F400051094B30510540F4CC0CDD1CEE1CFF1C4C
:100F5000D1CF2E5F3F4FB6CF1C821B8221E030E005
:100F60003A8329838091D0018D3078F41C821B82D2
:100F700021E030E03A83298380912B0190912C016C
:100F8000181619060CF46CC0C3C049E753E0BE0143
:100F90006D5F7F4FCE0101960E943403892B31F79C
:100FA00049E753E0BE016D5F7F4FCE0101960E947D
:100FB00034030197D9F649E753E0BE016D5F7F4FD7
:100FC000CE0101960E943403892B81F6812C912C4D
:100FD000540100E010E08091D00190E029813A8135
:100FE0002817390774F549E753E0BE016D5F7F4F5D
:100FF000CE0101960E9434037C0149E753E0BE0113
:101000006D5F7F4FCE0101960E94340331E0E316FD
:10101000F10451F4892B09F0A9CF880C991CAA1C62
:10102000BB1C689480F80AC0EF2809F09FCF019795
:1010300009F09CCF880C991CAA1CBB1C0F5F1F4F8A
:10104000CACF109328010093270180922301909228
:101050002401A0922501B092260181E090E0BACD52
:10106000E0912901F0912A0182E090E09A8389833E
:101070008281938189974E9708F04AC083E090E07F
:101080009A838983848195810B970A9708F040C0E1
:101090004CEB51E0BE016D5F7F4FCE0101960E9487
:1010A0003403892BA9F54CEB51E0BE016D5F7F4FF6
:1010B000CE0101960E943403019751F5812C912CA9
:1010C000540100E010E020912B0130912C01898126
:1010D0009A81821793070CF026C14CEB51E0BE01B8
:1010E0006D5F7F4FCE0101960E9434036C01033087
:1010F000110509F0E2C04CEB51E0BE016D5F7F4F7E
:10110000CE0101960E943403C816D90609F4D5C051
:10111000E0912901F0912A0182819381C6978697F7
:10112000E0F4848195814B974597B8F4DF011696DA
:101130007F0196ECE90EF11C20E030E040E050E049
:1011400060E070E080E090E00D911C9111970950F3
:1011500011090830110508F4F5C08091D0018933D8
:1011600070F182819381895791098335910508F443
:1011700025C125C0D90112966D917C9113976651B6
:1011800071096131710508F045C1D701C601880FA9
:10119000991FAA1FBB1F6C017D016894C0F84E5FA8
:1011A0005F4F2C5F3F4F4B33510509F416C1D901F6
:1011B0006D917C916A50710969307105D8F2809106
:1011C000D001823231F4828193810A97099708F421
:1011D00031C1828193818957910983359105D0F47A
:1011E0008091D0018132B0F084819581CA9789972E
:1011F00088F49F012A5F3F4FC12CD12C760143E038
:1012000050E0D9016D917C916A5071096930710586
:1012100008F42AC1828193818C549109C59778F48E
:101220008091D001843031F48481958180974797F3
:1012300008F480C18091D001843408F062C18091AB
:10124000D001863460F1828193810C970B9708F46A
:10125000BEC125C0D90112966D917C9113976E5134
:1012600071096731710508F0E8C1D701C601880F1F
:10127000991FAA1FBB1F6C017D016894C0F84E5FC7
:101280005F4F2C5F3F4F4534510509F4BBC1D90175
:101290006D917C916C5071096B307105D8F2809121
:1012A000D001883508F431C2828193818558910933
:1012B0008B35910508F4D1C128C24CEB51E0BE0139
:1012C0006D5F7F4FCE0101960E9434037C01033095
:1012D000110569F44CEB51E0BE016D5F7F4FCE010B
:1012E00001960E943403E816F90609F011CFC114E3
:1012F000D10459F4EA94EF2809F00ACF880C991C1C
:10130000AA1CBB1C689480F80BC0CA94CD2809F0B5
:10131000FFCEEF2809F0FCCE880C991CAA1CBB1C40
:101320000F5F1F4FD0CE10932801009327018092AA
:10133000230190922401A0922501B092260182E01F
:1013400090E048CC12960D911C9113970151110910
:101350000D30110528F501E00E94AD0C21601496B6
:10136000AE15BF0509F0F0CE209323013093240180
:10137000409325015093260100E20E94C80C20935F
:10138000210130932201E5E0F0E0F0932001E093A9
:101390001F0120E330E030932801209327011ECC69
:1013A00012960D911C9113970450110905301105E7
:1013B00008F0D3CE01E00E94AD0CD1CF848195819D
:1013C000CA97899708F0FBCE9F012A5F3F4FC12C37
:1013D000D12C760143E050E0EACE9F012A583F4FDE
:1013E000D9012D913C912A5031092930310508F05D
:1013F000E6CE2CE130E03093280120932701C09203
:101400002301D0922401E0922501F09226018AE086
:1014100090E0E0CBD90112966D917C9113976650C4
:1014200071096730710508F0CACECC0CDD1CEE1CCA
:10143000FF1CB5CE2091D001CF01820F911D820FEC
:10144000911DDC0112978D919C910A97099708F0E4
:10145000C0CE1092280110922701E6E0F0E0F09350
:101460002001E0931F01C7CBD90112966D917C91A9
:101470001397665171096131710598F5D701C6015D
:10148000880F991FAA1FBB1F6C017D016894C0F8CB
:101490004E5F5F4F2C5F3F4F4332510509F0B1CE95
:1014A0009F012A5B3F4FD9012D913C912A50310970
:1014B0002930310508F0AECEE0E1F0E0F0932801EC
:1014C000E0932701C0922301D0922401E0922501EC
:1014D000F092260126E030E03093200120931F0196
:1014E0007DCBD90112966D917C911397665071094D
:1014F0006730710508F08ECECC0CDD1CEE1CFF1C95
:10150000C7CF8481958189549109C39708F097CEFC
:101510009F012A5F3F4FBF016A577F4FC12CD12CDB
:101520007601D9014D915C914950510949305105DD
:1015300090F085CE868197810997099708F07ACE39
:10154000109228011092270127E030E0309320010B
:1015500020931F0150CBD90112964D915C911397A6
:10156000465151094131510510F5D701C601880F87
:10157000991FAA1FBB1F6C017D016894C0F82C5FE6
:101580003F4F2617370769F630922801209227012E
:10159000C0922301D0922401E0922501F09226010D
:1015A000E7E0F0E0F0932001E0931F0117CBD901B1
:1015B00012964D915C911397465051094730510551
:1015C00008F03DCECC0CDD1CEE1CFF1CD8CF848176
:1015D00095810997099708F062CE868197818C974B
:1015E0004F9708F05CCE8085918589974D9708F0DC
:1015F00056CE9F01265F3F4FC12CD12C760145E08E
:1016000050E045CE9F0126573F4FD9012D913C9187
:101610002C5031092B30310508F041CE3092280191
:1016200020922701C0922301D0922401E09225014B
:10163000F092260188E090E0CDCAD90112966D9112
:101640007C911397695071096930710508F027CEB4
:10165000CC0CDD1CEE1CFF1C12CE848195818254C3
:1016600091098E9708F051C08F01045C1F4F8DE1E6
:1016700090E020E030E04091D00150E0445051092A
:1016800084179507ACF4A80142505109DA014D9135
:101690005C91495051094830510510F136C0D801CC
:1016A0004D915C91485151094231510558F1CB019E
:1016B00001979595879590932801809327018A97A4
:1016C00024F1C901330FAA0BBB0B80932301909324
:1016D0002401A0932501B093260189E090E07ACA05
:1016E000BC016F5F7F4FD8014D915C91475051090C
:1016F00047305105A0F6220F331F216002960C5F80
:101700001F4FB9CF220F331FF9CF8091D001803204
:10171000E1F48281938106970697B8F484819581DC
:101720000997099790F49F012A5F3F4FBF01625CC0
:101730007F4FC12CD12C7601D9014D915C9146503F
:1017400051094630510508F480C020912B01309199
:101750002C0138872F83263031050CF4BACA8F014B
:101760000E5F1F4F95ECC92E9DE9D92E9CE1E92E05
:1017700091E8F92E83E090E09E838D83D801149642
:101780006D917C911597AD90BC9080E090E00E94A7
:10179000130E2B013C01B50180E090E00E94130E76
:1017A0004B015C012DEC3CEC4CE45FE30E94C50E68
:1017B0009B01AC01C301B2010E94660D87FD17C0F9
:1017C0002DEC3CEC4CE45FE3C301B2010E94C50E7A
:1017D0009B01AC01C501B4010E94660DE82F880F82
:1017E000FF0BEE27FF0FEE1FFF27319602C0E0E050
:1017F000F0E0A701960163E971E080E091E00E94CA
:10180000920C6F01FF0FEE08FF08C626D726E826C8
:10181000F926ED81FE813196FE83ED830E5F1F4F29
:101820002F8138852E173F0709F0A8CFC0922301DA
:10183000D0922401E0922501F092260130922801F5
:10184000209227018FEF9FEFC5C9D90112964D91C4
:101850005C911397495151094331510508F5D7015E
:10186000C601880F991FAA1FBB1F6C017D016894D8
:10187000C0F82C5F3F4F2617370709F05DCF2EE0E9
:1018800030E03093280120932701C0922301D092A9
:101890002401E0922501F09226018FE090E09AC9A0
:1018A000D90112964D915C911397495051094930D5
:1018B000510508F04ACFCC0CDD1CEE1CFF1CD9CF23
:1018C000EFE2F1E01382128288EE93E0A0E0B0E054
:1018D00084839583A683B78384E091E0918380839A
:1018E00085EC90E09587848784EC90E097878687E5
:1018F00080EC90E0918B808B81EC90E0938B828BDD
:1019000082EC90E0958B848B86EC90E0978B868BB5
:10191000118E128E138E148EECECF1E082E0818336
:1019200013820895DB018F939F930E94A20CBF91B5
:10193000AF91A29F800D911DA39F900DB29F900D1E
:10194000112408950E94EA0CA59F900DB49F900D5C
:10195000A49F800D911D112408950F93083090F0DD
:10196000982F872F762F652F542F432F322F222722
:101970000850F4CF220F331F441F551F661F771FD7
:10198000881F991F0A95B2F70F91089597FB10F8D9
:10199000169400080F93083098F00850232F342F26
:1019A000452F562F672F782F892F902DF4CF059430
:1019B0009795879577956795579547953795279587
:1019C0000A95AAF70F910895EE0FFF1F0590F49165
:1019D000E02D0994A29FB001B39FC001A39F700D99
:1019E000811D1124911DB29F700D811D1124911D27
:1019F00008955058BB27AA270E94110D0C948B0EF6
:101A00000E947D0E38F00E94840E20F039F49F3F32
:101A100019F426F40C947A0E0EF4E095E7FB0C947E
:101A2000740EE92F0E949C0E58F3BA1762077307D1
:101A30008407950720F079F4A6F50C94BE0E0EF4F9
:101A4000E0950B2EBA2FA02D0B01B90190010C01CE
:101A5000CA01A0011124FF27591B99F0593F50F4E6
:101A6000503E68F11A16F040A22F232F342F44273E
:101A7000585FF3CF469537952795A795F040539536
:101A8000C9F77EF41F16BA0B620B730B840BBAF006
:101A90009150A1F0FF0FBB1F661F771F881FC2F771
:101AA0000EC0BA0F621F731F841F48F48795779585
:101AB0006795B795F7959E3F08F0B0CF9395880F3F
:101AC00008F09927EE0F9795879508950E94500E7C
:101AD00008F481E008950E947F0D0C948B0E0E9403
:101AE000840E58F00E947D0E40F029F45F3F29F0EB
:101AF0000C94740E51110C94BF0E0C947A0E0E942B
:101B00009C0E68F39923B1F3552391F3951B550B64
:101B1000BB27AA2762177307840738F09F5F5F4FC0
:101B2000220F331F441FAA1FA9F335D00E2E3AF0FF
:101B3000E0E832D091505040E695001CCAF72BD017
:101B4000FE2F29D0660F771F881FBB1F2617370768
:101B50004807AB07B0E809F0BB0B802DBF01FF279A
:101B600093585F4F3AF09E3F510578F00C94740EF5
:101B70000C94BF0E5F3FE4F3983ED4F386957795BF
:101B80006795B795F7959F5FC9F7880F911D969553
:101B9000879597F90895E1E0660F771F881FBB1FAF
:101BA000621773078407BA0720F0621B730B840B5C
:101BB000BA0BEE1F88F7E09508950E94E40D689433
:101BC000B1110C94BF0E08950E94A40E88F09F5787
:101BD00098F0B92F9927B751B0F0E1F0660F771F51
:101BE000881F991F1AF0BA95C9F714C0B13091F047
:101BF0000E94BE0EB1E008950C94BE0E672F782FA0
:101C00008827B85F39F0B93FCCF38695779567950B
:101C1000B395D9F73EF490958095709561957F4F77
:101C20008F4F9F4F0895E89409C097FB3EF490951D
:101C30008095709561957F4F8F4F9F4F9923A9F0A5
:101C4000F92F96E9BB279395F69587957795679534
:101C5000B795F111F8CFFAF4BB0F11F460FF1BC078
:101C60006F5F7F4F8F4F9F4F16C0882311F096E90B
:101C700011C0772321F09EE8872F762F05C06623B9
:101C800071F096E8862F70E060E02AF09A95660F72
:101C9000771F881FDAF7880F9695879597F908952B
:101CA000990F0008550FAA0BE0E8FEEF161617066D
:101CB000E807F907C0F012161306E407F50798F0D5
:101CC000621B730B840B950B39F40A2661F0232BEE
:101CD000242B252B21F408950A2609F4A140A6956A
:101CE0008FEF811D811D089597F99F6780E870E04F
:101CF00060E008959FEF80EC089500240A94161682
:101D0000170618060906089500240A9412161306E9
:101D1000140605060895092E0394000C11F4882377
:101D200052F0BB0F40F4BF2B11F460FF04C06F5F93
:101D30007F4F8F4F9F4F089557FD9058440F551F69
:101D400059F05F3F71F04795880F97FB991F61F03D
:101D50009F3F79F087950895121613061406551FB4
:101D6000F2CF4695F1DF08C0161617061806991F20
:101D7000F1CF86957105610508940895E894BB2715
:101D800066277727CB0197F908950E94D80E0C9407
:101D90008B0E0E947D0E38F00E94840E20F0952359
:101DA00011F00C94740E0C947A0E11240C94BF0E46
:101DB0000E949C0E70F3959FC1F3950F50E0551F44
:101DC000629FF001729FBB27F00DB11D639FAA2790
:101DD000F00DB11DAA1F649F6627B00DA11D661FDF
:101DE000829F2227B00DA11D621F739FB00DA11D00
:101DF000621F839FA00D611D221F749F3327A00DBA
:101E0000611D231F849F600D211D822F762F6A2F55
:101E100011249F5750409AF0F1F088234AF0EE0FBA
:101E2000FF1FBB1F661F771F881F91505040A9F7E7
:101E30009E3F510580F00C94740E0C94BF0E5F3FD2
:101E4000E4F3983ED4F3869577956795B795F79523
:101E5000E7959F5FC1F7FE2B880F911D969587959B
:101E600097F9089581E090E0F8940C94370FF89476
:021E7000FFCFA2
:101E72000000000023018C00BA007001EB00C900D1
:021E8200DD0081
:00000001FF
